:020000040801F1
:10400000005000209D490108294701083147010857
:1040100000000000000000000000000000000000A0
:104020000000000000000000000000003947010807
:104030000000000000000000434701084D47010850
:10404000ED490108ED490108ED490108ED49010874
:10405000ED490108ED490108ED490108ED49010864
:10406000ED490108ED490108ED490108ED49010854
:10407000ED490108ED490108ED490108ED49010844
:10408000ED490108ED490108ED4901080000000073
:10409000ED490108ED490108ED490108ED49010824
:1040A000ED490108ED490108ED490108ED49010814
:1040B000ED490108ED49010800000000ED49010843
:1040C00010B5064C2378002B07D1054B002B02D0EE
:1040D000044800E000BF0123237010BD5C000020F5
:1040E000000000000C7A0108044B10B5002B03D02F
:1040F0000349044800E000BF10BDC04600000000B6
:10410000600000200C7A01080023C25C0133002A01
:10411000FBD1581E7047000003B4714649084000A7
:104120004900095E49008E4403BC704700224308E1
:104130008B4274D303098B425FD3030A8B4244D36F
:10414000030B8B4228D3030C8B420DD3FF220902B1
:1041500012BA030C8B4202D31212090265D0030B70
:104160008B4219D300E0090AC30B8B4201D3CB0366
:10417000C01A5241830B8B4201D38B03C01A5241A8
:10418000430B8B4201D34B03C01A5241030B8B42AA
:1041900001D30B03C01A5241C30A8B4201D3CB0295
:1041A000C01A5241830A8B4201D38B02C01A52417A
:1041B000430A8B4201D34B02C01A5241030A8B427D
:1041C00001D30B02C01A5241CDD2C3098B4201D395
:1041D000CB01C01A524183098B4201D38B01C01A13
:1041E000524143098B4201D34B01C01A524103098A
:1041F0008B4201D30B01C01A5241C3088B4201D339
:10420000CB00C01A524183088B4201D38B00C01AE5
:10421000524143088B4201D34B00C01A5241411A0C
:1042200000D20146524110467047FFE701B5002019
:1042300000F006F802BDC0460029F7D076E77047C7
:104240007047C046002B11D1002A0FD1002900D1A0
:10425000002802D00021C943080007B4024802A187
:104260004018029003BDC046D9FFFFFF03B4684663
:1042700001B5029800F034F8019B9E4602B00CBCD8
:104280007047C046F0B5CE469946030C9C461304D1
:1042900047461B0C1D000E0061460404240C80B52B
:1042A0000700100C4B436543414360432C0CC0187E
:1042B00024188C46A34203D980235B029846C44449
:1042C000494679435643230C2D042D0C8919634428
:1042D00024046019C918C0BCB946B046F0BDC04638
:1042E000F0B557464E464546DE46E0B504000D00A3
:1042F0009246994683B08B4230D82DD049465046DD
:1043000000F0BAF829000600200000F0B5F8331AD2
:104310009846203B34D49B4653465A4693404246E7
:104320001F00534693401E00AF423BD8AF4200D11E
:1043300079E05B46A41BBD41002B00DA76E0002249
:1043400000230092019301235A46934001930123D5
:1043500042469340009329E08242CFD900220023B5
:10436000009201930C9B002B01D01C605D600098B3
:10437000019903B0F0BCBB46B246A946A046F0BDC9
:1043800042469B4620239B1A5246DA404146130080
:104390004A468A40170042461F43534693401E0038
:1043A000AF42C3D900220023009201934346002B61
:1043B000D8D0FB0772081A4346467B080EE0AB4292
:1043C00001D1A2420CD8A41A9D41012024196D41AB
:1043D0000021013E24184D41002E06D0AB42EED9FB
:1043E000013E24196D41002EF8D1009801995B46D9
:1043F00000196941002B24DB2B005A464446D34068
:104400002A00E2401C005B461500002B2ADB260038
:104410009E40330026004746BE403200801A994134
:10442000009001919EE7A342BCD882E74246202338
:1044300000219B1A0022009101920122DA40019290
:1044400085E7424620239B1A2A0046469A402300CD
:10445000F340444613432A00E2401C005B4615002B
:10446000002BD4DA42462F002023260097409B1AC7
:10447000DE403B003343CDE710B5002903D100F007
:1044800007F8203002E0080000F002F810BDC04636
:104490001C2101231B04984201D3000C10391B0A74
:1044A000984201D3000A08391B09984201D3000938
:1044B000043902A2105C40187047C046040302028F
:1044C00001010101000000000000000080B582B081
:1044D00000AF0E4BDA6A0D4B04210A43DA620B4B34
:1044E000DB6A042213407B607B68084BDA6A074B67
:1044F00001210A43DA62054BDB6A012213403B606B
:104500003B68C046BD4602B080BDC04600100240B8
:1045100080B58EB000AF00F06BFA19E0154B1B7838
:104520001A0015493B1D180002F0D4FD3B1D180070
:10453000FFF7EAFD03009AB2FA239B00391D0F48EA
:1045400002F060F80B4B1B780133DAB2094B1A709A
:10455000084B1B78092BE1D900F073FB00F010F831
:10456000FFF7B4FF00F08AF800F03AF900F0A2F982
:10457000C046FDE778000020247A0108E40000200E
:1045800090B59DB000AF38243B19180038231A00AD
:10459000002102F0C1FD2423FB18180014231A0087
:1045A000002102F0B9FD3B00180024231A0000216D
:1045B00002F0B2FD2B4B1B682B4A1A40294B80217D
:1045C00009010A431A6000F0CBFC284B1A6D274BF7
:1045D00025490A401A653B1906221A603B198022B8
:1045E00052009A603B190122DA603B1910221A61CD
:1045F0003B1900229A623B19180000F0BFFC031E11
:1046000001D000F035F824217B180F221A607B18A6
:1046100001225A607B1800229A607B180022DA601F
:104620007B1800221A617B180021180001F07AF82B
:10463000031E01D000F01CF83B0021221A603B0051
:1046400000229A603B00802252025A603B00180010
:1046500001F08CFA031E01D000F00AF8C046BD46F6
:104660001DB090BD00700040FFE7FFFF001002404A
:1046700080B500AF72B6C046C046FDE780B500AF5A
:10468000114B124A1A60104B00225A600E4B7F22C7
:104690009A600D4BFF22DA600B4B00221A610A4B25
:1046A00000225A61084B00229A61074B0022DA610E
:1046B000054B180001F0B6FB031E01D0FFF7D8FF31
:1046C000C046BD4680BDC0467C000020002800409A
:1046D00080B582B000AF78607B681B68064A934261
:1046E00006D1064B1A6D054B8021C9020A431A6593
:1046F000C046BD4602B080BD002800400010024008
:1047000080B500AF074B5A6B064B01210A435A6331
:10471000044B9A6B034B802149050A439A63C046B8
:10472000BD4680BD0010024080B500AFC046FDE729
:1047300080B500AFC046FDE780B500AFC046BD46BE
:1047400080BD80B500AFC046BD4680BD80B500AF1E
:1047500000F0A2F9C046BD4680BD000080B586B01D
:1047600000AF7860144A154BD31A7B617B693B61BB
:10477000134B1B68002B02D1114B124A1A60104BCD
:104780001A687B68D3183A699A4207D202F0CCFCC7
:1047900003000C221A6001235B4209E0084B1B68EE
:1047A000FB60074B1A687B68D218054B1A60FB68E0
:1047B0001800BD4606B080BD005000200004000077
:1047C000A0000020B802002080B500AF024B034AD1
:1047D0009A60C046BD4680BD00ED00E00040010883
:1047E00080B586B000AF0823FB18180010231A000C
:1047F000002102F091FC3B00180008231A00002160
:1048000002F08AFC1E4B8022D2051A601C4B00224B
:104810005A601B4B00229A60194B1A4ADA60184BF7
:1048200000221A61164B00225A61154B180001F044
:104830002BFC031E01D0FFF71BFF08217B188022F1
:1048400052011A607A180E4B1100180001F05CFC3E
:10485000031E01D0FFF70CFF3B0000221A603B0053
:1048600000225A603A00064B1100180001F018FEB1
:10487000031E01D0FFF7FCFEC046BD4606B080BD5A
:10488000A4000020FFFF000080B582B000AF786078
:104890007B681A688023DB059A4205D1044B9A6B2A
:1048A000034B01210A439A63C046BD4602B080BD56
:1048B0000010024080B500AF144B154A1A60134B2C
:1048C000E12252025A60114B00229A600F4B0022E3
:1048D000DA600E4B00221A610C4B0C225A610B4B12
:1048E00000229A61094B0022DA61084B00221A6209
:1048F000064B00225A62054B180001F02FFE031EE2
:1049000001D0FFF7B5FEC046BD4680BDE4000020E3
:104910000038014090B589B000AF78600C243B1995
:10492000180014231A00002102F0F6FB7B681B68B4
:10493000184A93422AD1184B5A6B174B8021C90150
:104940000A435A63144BDA6A134B01210A43DA62B1
:10495000114BDB6A01221340BB60BB683B19C022CC
:10496000D2001A6021007B1802225A607B180022B4
:104970009A607B180322DA607B1804221A617A1885
:10498000A023DB051100180000F06CF9C046BD46FD
:1049900009B090BD00380140001002400D48854626
:1049A000FFF712FF0C480D490D4A002302E0D458CE
:1049B000C4500433C4188C42F9D30A4A0A4C002369
:1049C00001E013600432A242FBD302F0B3FBFFF715
:1049D0009FFDFEE700500020000000205C0000204A
:1049E000F07A01085C000020B8020020FEE7000019
:1049F00080B582B000AFFB1D00221A700B4B1A6805
:104A00000A4B40210A431A60032000F011F8031EEC
:104A100003D0FB1D01221A7001E0FFF771FEFB1DA0
:104A20001B781800BD4602B080BDC0460020024081
:104A300090B583B000AF7860144B1C68144B1B78A2
:104A40001900FA239800FFF771FB030019002000FA
:104A5000FFF76CFB0300180000F0F7F8031E01D00D
:104A600001230FE07B68032B0BD8796801235B429D
:104A70000022180000F0D0F8064B7A681A60002374
:104A800000E001231800BD4603B090BD00000020E7
:104A9000080000200400002080B500AF054B1B7803
:104AA0001A00054B1B68D218034B1A60C046BD465E
:104AB00080BDC046080000206C01002080B500AF1A
:104AC000024B1B681800BD4680BDC0466C0100202B
:104AD00090B583B000AF02003960FB1D1A70FB1D5A
:104AE0001B787F2B28D82F4AFB1D1B785BB29B08B5
:104AF000C0339B009B58FA1D1278110003220A4014
:104B0000D200FF2191400A00D2431A4011003B68B5
:104B10009B01FF221A40FB1D1B7818000323034052
:104B2000DB009A401F48FB1D1B785BB29B080A43C1
:104B3000C0339B001A5031E01B4AFB1D1B78190043
:104B40000F230B40083B9B0806339B00D31804330C
:104B50001B68FA1D1278110003220A40D200FF21BF
:104B600091400A00D2431A4011003B689B01FF228A
:104B70001A40FB1D1B78180003230340DB009A40FA
:104B80000948FB1D1B781C000F232340083B9B0892
:104B90000A4306339B00C31804331A60C046BD465F
:104BA00003B090BD00E100E000ED00E080B500AF93
:104BB000BFF34F8FC046044B044ADA60BFF34F8FF8
:104BC000C046C046FDE7C04600ED00E00400FA051F
:104BD00080B582B000AF78607B685A1E80235B048A
:104BE0009A4201D3012310E00A4B7A68013A5A60D5
:104BF00001235B4203211800FFF76AFF054B0022E7
:104C00009A60044B07221A6000231800BD4602B0C8
:104C100080BDC04610E000E080B584B000AFB96050
:104C20007A600F217B18021C1A70BA687B181B78F7
:104C30005BB211001800FFF74BFFC046BD4604B041
:104C400080BD80B500AFFFF7B1FF80B582B000AF87
:104C500078607B681800FFF7BBFF03001800BD46B3
:104C600002B080BD80B586B000AF786039600023A7
:104C70007B610023FB6000233B6155E13B681B68BF
:104C800001217A6991400A001340FB60FB68002B08
:104C900000D146E13B685B6803221340012B05D03D
:104CA0003B685B6803221340022B30D17B689B6812
:104CB0003B617B695B0003229A401300DA433B6946
:104CC00013403B613B68DA687B695B009A401300E4
:104CD0003A6913433B617B683A699A607B685B6819
:104CE0003B6101227B699A401300DA433B69134020
:104CF0003B613B685B681B0901221A407B699A4053
:104D000013003A6913433B617B683A695A603B6818
:104D10005B6803221340032B17D07B68DB683B6181
:104D20007B695B0003229A401300DA433B6913401E
:104D30003B613B689A687B695B009A4013003A6963
:104D400013433B617B683A69DA603B685B68032226
:104D50001340022B23D17B69DA087B68083292006A
:104D6000D3583B617B69072213409B000F229A4076
:104D70001300DA433B6913403B613B681A697B6966
:104D800007210B409B009A4013003A6913433B6193
:104D90007B69DA087B68083292003969D1507B68F8
:104DA0001B683B617B695B0003229A401300DA4376
:104DB0003B6913403B613B685B6803221A407B6997
:104DC0005B009A4013003A6913433B617B683A6980
:104DD0001A603B685A68C0239B02134000D1A0E0D0
:104DE000574B5A6B564B01210A435A63554A7B690C
:104DF0009B0802339B009B583B617B690322134055
:104E00009B000F229A401300DA433B6913403B6139
:104E10007A68A023DB059A421FD07B684A4A9342F6
:104E200019D07B68494A934213D07B68484A934221
:104E30000DD07B68474A934207D07B68464A93422D
:104E400001D105230AE0062308E0042306E003233A
:104E500004E0022302E0012300E000237A69032139
:104E60000A40920093403A6913433B6135497B699C
:104E70009B0802339B003A695A50384B9B683B6150
:104E8000FB68DA433B6913403B613B685A68802307
:104E90005B03134003D03A69FB6813433B612F4B1C
:104EA0003A699A602D4BDB683B61FB68DA433B69EA
:104EB00013403B613B685A6880239B03134003D037
:104EC0003A69FB6813433B61244B3A69DA60234B30
:104ED0005B683B61FB68DA433B6913403B613B68BD
:104EE0005A6880239B02134003D03A69FB6813433E
:104EF0003B611A4B3A695A60184B1B683B61FB686F
:104F0000DA433B6913403B613B685A6880235B028C
:104F1000134003D03A69FB6813433B610F4B3A6976
:104F20001A607B6901337B613B681A687B69DA40F0
:104F3000131E00D0A2E6C046C046BD4606B080BDE6
:104F40000010024000000140000400500008005022
:104F5000000C005000100050001C005000040140E4
:104F600080B500AF044B1A68034B802149000A4307
:104F70001A60C046BD4680BD00700040B0B58AB022
:104F800000AF78607B68002B02D1012300F0BFFBEB
:104F9000C94BDB680C221340FB61C74BDA688023E6
:104FA0005B021340BB617B681B680122134000D188
:104FB0007EE0FB69082B07D0FB690C2B12D1BA6984
:104FC00080235B029A420DD1BB4B1A6880239B025F
:104FD000134000D16BE07B685B68002B67D1012335
:104FE00000F095FB7B685A6880235B029A4207D1E8
:104FF000B14B1A68B04B802149020A431A6027E07E
:105000007B685A68A023DB029A420ED1AA4B1A6829
:10501000A94B8021C9020A431A60A74B1A68A64B04
:10502000802149020A431A6012E0A34B1A68A24B7E
:10503000A2490A401A60A04B1A6880235B02134001
:10504000FB60FB689C4B1A689B4B9D490A401A60A9
:105050007B685B68002B15D0FFF730FD03007B6198
:1050600009E0FFF72BFD02007B69D31A642B02D9FC
:10507000032300F04CFB904B1A6880239B021340E3
:10508000EFD015E0FFF71AFD03007B6108E0FFF7A2
:1050900015FD02007B69D31A642B01D9032336E383
:1050A000854B1A6880239B021340F0D100E0C04674
:1050B0007B681B680222134000D199E07B68DB68A3
:1050C0007B627B6A2022134009D07B4B1A687A4BA3
:1050D00020210A431A607B6A202293437B62FB698A
:1050E000042B05D0FB690C2B3ED1BB69002B3BD1B7
:1050F000714B1B680422134004D07B6A002B01D142
:10510000012304E36C4B5B686E4A134019007B6813
:105110001B691A02684B0A435A60674B1B680922D5
:1051200093431900644B7A6A0A431A6000F042FC08
:105130000100614BDB681B090F221340624AD35CFC
:105140000A00DA40614B1A60614B1B6813257C1919
:105150001800FFF76DFC030023707B191B78002BF0
:1051600046D07B191B78D2E27B6A002B27D0524BAA
:105170001B680922934319004F4B7A6A0A431A604D
:10518000FFF79CFC03007B6108E0FFF797FC02003F
:105190007B69D31A022B01D90323B8E2464B1B6863
:1051A00004221340F1D0444B5B68464A1340190077
:1051B0007B681B691A02404B0A435A6018E03E4B59
:1051C0001A683D4B01218A431A60FFF777FC030000
:1051D0007B6108E0FFF772FC02007B69D31A022BA7
:1051E00001D9032393E2344B1B6804221340F1D10D
:1051F0007B681B681022134000D1A2E0FB69002BE2
:1052000040D12D4B1A6880239B00134005D07B684A
:10521000DB69002B01D1012379E2274B5B682D4A22
:10522000134019007B685A6A234B0A435A60224B89
:105230005B681B02190A7B681B6A1A061E4B0A432D
:105240005A607B685B6A5B0B0133802212029A40D2
:10525000194BDB681B090F210B401B49CB5CDA4063
:105260001A4B1A601A4B1B6813257C191800FFF79C
:10527000DFFB030023707B191B78002B61D07B19A7
:105280001B7844E27B68DB69002B40D00A4B1A682C
:10529000094B802149000A431A60FFF70FFC030005
:1052A0007B6119E0FFF70AFC02007B69D31A022B2D
:1052B00012D903232BE2C04600100240FFFFFEFF7D
:1052C000FFFFFBFFFFE0FFFF407A01080000002026
:1052D00004000020FF1FFFFFCA4B1A6880239B00B9
:1052E0001340DFD0C74B5B68C74A134019007B6887
:1052F0005A6AC44B0A435A60C24B5B681B02190AC4
:105300007B681B6A1A06BF4B0A435A6019E0BD4B03
:105310001A68BC4BBD490A401A60FFF7CFFB030077
:105320007B6108E0FFF7CAFB02007B69D31A022BFE
:1053300001D90323EBE1B34B1A6880239B00134090
:10534000F0D17B681B680822134036D07B685B690C
:10535000002B19D0AB4B1A6DAA4B01210A431A65D9
:10536000FFF7ACFB03007B6108E0FFF7A7FB02003F
:105370007B69D31A022B01D90323C8E1A14B1B6D12
:1053800002221340F1D018E09E4B1A6D9D4B012173
:105390008A431A65FFF792FB03007B6108E0FFF781
:1053A0008DFB02007B69D31A022B01D90323AEE1E6
:1053B000944B1B6D02221340F1D17B681B680422C1
:1053C000134000D1AEE023203B1800221A708D4B11
:1053D0009A6B80235B05134009D18A4B9A6B894BEA
:1053E000802149050A439A633B1801221A70884BB1
:1053F0001A6880235B0013401AD1854B1A68844BCE
:10540000802149000A431A60FFF758FB03007B61C3
:1054100008E0FFF753FB02007B69D31A642B01D924
:10542000032374E17A4B1A6880235B001340F0D0A9
:105430007B689A6880235B009A4207D1714B1A6D92
:10544000704B802149000A431A6531E07B689B68F4
:10545000002B0CD16B4B1A6D6A4B6C490A401A65D4
:10546000684B1A6D674B6B490A401A6520E07B68F0
:105470009A68A023DB009A420ED1624B1A6D614BF1
:105480008021C9000A431A655E4B1A6D5D4B80216D
:1054900049000A431A650BE05A4B1A6D594B5B4998
:1054A0000A401A65574B1A6D564B5A490A401A65FD
:1054B0007B689B68002B15D0FFF700FB03007B6126
:1054C00009E0FFF7FBFA02007B69D31A524A9342C4
:1054D00001D903231BE14B4B1A6D80239B00134022
:1054E000EFD014E0FFF7EAFA03007B6109E0FFF771
:1054F000E5FA02007B69D31A474A934201D9032394
:1055000005E1404B1A6D80239B001340EFD123230C
:10551000FB181B78012B05D13A4B9A6B394B3F494D
:105520000A409A637B681B682022134049D07B683D
:105530009B69002B26D0334B9A68324B01210A43DA
:105540009A60304B5A6B2F4B01210A435A63344BFC
:105550001A6A334B802189010A431A62FFF7AEFAB7
:1055600003007B6108E0FFF7A9FA02007B69D31A08
:10557000022B01D90323CAE0224B9B68022213406D
:10558000F1D01EE01F4B9A681E4B01218A439A609E
:10559000234B1A6A224B23490A401A62FFF78EFAFC
:1055A00003007B6108E0FFF789FA02007B69D31AE8
:1055B000022B01D90323AAE0124B9B68022213405D
:1055C000F1D17B689B6A002B00D19FE0FB690C2B1B
:1055D00000D178E07B689B6A022B59D1094B1A688D
:1055E000084B11490A401A60FFF768FA03007B6113
:1055F0001CE0FFF763FA02007B69D31A022B15D96E
:10560000032384E000100240FF1FFFFFFFFEFFFFA7
:1056100000700040FFFBFFFF88130000FFFFFFEF5B
:1056200000000140FFDFFFFFFFFFFFFE3A4B1A685B
:1056300080239B041340DCD1374BDB68374A13408F
:1056400019007B68DA6A7B681B6B1A437B685B6BAB
:105650001A43314B0A43DA602F4B1A682E4B8021D4
:1056600049040A431A60FFF729FA03007B6108E046
:10567000FFF724FA02007B69D31A022B01D9032316
:1056800045E0254B1A6880239B041340F0D03DE091
:10569000214B1A68204B22490A401A60FFF70EFA84
:1056A00003007B6108E0FFF709FA02007B69D31A67
:1056B000022B01D903232AE0174B1A6880239B048D
:1056C0001340F0D122E07B689B6A012B01D10123BA
:1056D0001DE0114BDB68BB61BA6980235B021A4095
:1056E0007B68DB6A9A420FD1BA69F0239B031A40A8
:1056F0007B681B6B9A4207D1BA69C0231B041A400E
:105700007B685B6B9A4201D0012300E00023180004
:10571000BD460AB0B0BDC04600100240FFFF02FF08
:10572000FFFFFFFEB0B584B000AF786039607B68E2
:10573000002B01D1012328E1964B1B680122134065
:105740003A689A421ED9934B1B6801229343190071
:10575000904B3A680A431A60FFF7B0F90300FB6008
:1057600009E0FFF7ABF90200FB68D31A8A4A9342BB
:1057700001D9032309E1874B1B68012213403A68D2
:105780009A42EED17B681B680222134009D0834BFA
:10579000DB68F022934319007B689A687F4B0A43C9
:1057A000DA607B681B680122134000D189E07B68C6
:1057B0005B68022B07D1794B1A6880239B02134048
:1057C00020D10123E1E07B685B68032B07D1734B99
:1057D0001A6880239B04134014D10123D5E07B6811
:1057E0005B68012B06D16D4B1B680422134009D165
:1057F0000123CAE0694B1A6880239B00134001D142
:105800000123C2E0654BDB680322934319007B68E8
:105810005A68624B0A43DA60FFF750F90300FB60F5
:105820007B685B68022B11D109E0FFF747F90200A2
:10583000FB68D31A584A934201D90323A5E0574B7A
:10584000DB680C221340082BEFD13AE07B685B68E1
:10585000032B11D109E0FFF731F90200FB68D31ADD
:105860004D4A934201D903238FE04C4BDB680C2255
:1058700013400C2BEFD124E07B685B68012B1BD11C
:1058800009E0FFF71BF90200FB68D31A424A934272
:1058900001D9032379E0414BDB680C221340042B30
:1058A000EFD10EE0FFF70AF90200FB68D31A3A4A7B
:1058B000934201D9032368E0384BDB680C22134084
:1058C000F0D1344B1B68012213403A689A421ED231
:1058D000304B1B680122934319002E4B3A680A4350
:1058E0001A60FFF7EBF80300FB6009E0FFF7E6F84A
:1058F0000200FB68D31A284A934201D9032344E0EB
:10590000244B1B68012213403A689A42EED17B680F
:105910001B680422134009D0204BDB68204A134047
:1059200019007B68DA681D4B0A43DA607B681B68E4
:10593000082213400AD0194BDB681A4A1340190099
:105940007B681B69DA00154B0A43DA6000F032F815
:105950000100124BDB681B090F221340124AD35C73
:105960000A00DA40114B1A60114B1B680B257C1999
:105970001800FFF75DF8030023707B191B78002BDC
:1059800002D07B191B7800E000231800BD4604B04C
:10599000B0BDC04600200240881300000010024045
:1059A000FFF8FFFFFFC7FFFF407A0108000000205B
:1059B00004000020B0B58EB000AF4C4BDB68FB623A
:1059C000FA6A0C2313400C2B14D000D97BE0042B73
:1059D00002D0082B0BD076E0444B1B6810221340FA
:1059E00002D0434B3B637CE0424B3B6379E0424B4C
:1059F0003B6376E0FB6A9A0C0F231A403F4B9B5C9B
:105A0000BB62FB6A9A0D0323134001337B62374B61
:105A1000DA6880235B0213401AD0BB6ABB610023A3
:105A2000FB61354A0023B869F969FEF72BFC0200D7
:105A30000B00100019007B6A3B6100237B613A690F
:105A40007B69FEF7FFFB02000B0013007B6337E06E
:105A5000264B1B68102213401AD0BB6ABB60002380
:105A6000FB60234A0023B868F968FEF70BFC0200CC
:105A70000B00100019007B6A3B6000237B603A68D2
:105A80007B68FEF7DFFB02000B0013007B6317E06F
:105A9000BB6A180000231900164A0023FEF7F2FB28
:105AA00002000B00100019007B6A1C0000231D007F
:105AB00022002B00FEF7C6FB02000B0013007B63E5
:105AC0007B6B3B630DE0094B5B685B0B072213406C
:105AD0003B623B6A0133802212029A4013003B630F
:105AE000C0463B6B1800BD460EB0B0BD0010024072
:105AF00000093D000024F40000127A00587A0108E1
:105B000080B500AF024B1B681800BD4680BDC04683
:105B10000000002080B500AFFFF7F2FF0100064B48
:105B2000DB681B0A07221340044AD35CD9400B00F0
:105B30001800BD4680BDC04600100240507A0108E2
:105B400080B500AFFFF7DCFF0100064BDB68DB0A26
:105B500007221340044AD35CD9400B001800BD460D
:105B600080BDC04600100240507A010880B586B062
:105B700000AF786017203B1800221A707B681B6802
:105B80002022134000D1C7E09B4B9A6B80235B051A
:105B9000134009D1984B9A6B974B802149050A43D2
:105BA0009A633B1801221A70944B1A6880235B0099
:105BB00013401AD1914B1A68904B802149000A4337
:105BC0001A60FEF77BFF03003B6108E0FEF776FFFB
:105BD00002003B69D31A642B01D9032307E1874BE9
:105BE0001A6880235B001340F0D0834B1A68C023EF
:105BF0009B031340FB607B685A68C0239B031340E0
:105C0000FA689A4213D07B685A68C0239B021A40F4
:105C1000C0239B029A420AD1774B1A6880239B02C9
:105C20001A4080239B029A4201D10123DFE0724B8C
:105C30001A6DC0239B021340FB60FB68002B3BD016
:105C40007B685A68C0239B021340FA689A4233D09B
:105C50007B681B68202213402ED0674B1B6D684A5F
:105C60001340FB60644B1A6D634B802109030A43A8
:105C70001A65614B1A6D604B62490A401A655E4BAA
:105C8000FA681A65FA6880235B00134014D0FEF7A7
:105C900015FF03003B6109E0FEF710FF02003B69BE
:105CA000D31A594A934201D90323A0E0524B1A6DEB
:105CB00080239B001340EFD07B681B682022134099
:105CC0001FD07B685A68C0239B021A40C0239B02E6
:105CD0009A420CD1484B1B684C4A134019007B6810
:105CE0005A68C0239B031A40434B0A431A60424B35
:105CF000196D7B685A68C0239B021A403E4B0A43C9
:105D00001A651723FB181B78012B05D13A4B9A6BA8
:105D1000394B3F490A409A637B681B680122134054
:105D200009D0354BDB6C0322934319007B689A68DA
:105D3000314B0A43DA647B681B680222134009D0A6
:105D40002D4BDB6C0C22934319007B68DA682A4BDD
:105D50000A43DA647B681B680422134009D0264B8F
:105D6000DB6C2C4A134019007B681A69224B0A43EA
:105D7000DA647B681B680822134009D01E4BDB6C79
:105D8000254A134019007B685A691B4B0A43DA64A1
:105D90007B681A6880235B00134009D0164BDB6CCC
:105DA000174A134019007B689A69134B0A43DA6457
:105DB0007B681B684022134009D00F4BDB6C174AED
:105DC000134019007B681A6A0B4B0A43DA647B683C
:105DD0001B688022134009D0074BDB6C104A13402C
:105DE00019007B68DA69044B0A43DA64002318005F
:105DF000BD4606B080BDC0460010024000700040A5
:105E0000FFFFFCFFFFFFF7FF88130000FFFFCFFF3E
:105E1000FFFFFFEFFFF3FFFFFFCFFFFFFFFFFFFBE2
:105E2000FFFFF3FFB0B584B000AF78600F23FB181D
:105E300001221A707B68002B01D1012388E07B6866
:105E400021229B5CDBB2002B07D17B682022002142
:105E500099547B681800FEF73BFC7B6821220221E5
:105E600099547B681B68DB6810221340102B5FD0AD
:105E70007B681B68CA225A627B681B6853225A627D
:105E80000F257C197B68180000F090F80300237040
:105E900028003B181B78002B2CD17B681B689A6864
:105EA0007B681B682C490A409A607B681B6899686C
:105EB0007B685A687B681B691A437B689B691A4335
:105EC0007B681B680A439A607B681B687A68D268A3
:105ED0001A617B681B6819697B689B681A047B6878
:105EE0001B680A431A613C187B68180000F0A2F88E
:105EF000030023700F23FB181B78002B13D17B6842
:105F00001B68DA6C7B681B6803218A43DA647B6850
:105F10001B68D96C7B68DA697B685B691A437B68AC
:105F20001B680A43DA647B681B68FF225A6203E03D
:105F30000F23FB1800221A700F23FB181B78002B6D
:105F400003D17B682122012199540F23FB181B7870
:105F50001800BD4604B0B0BDBFFF8FFF80B584B050
:105F600000AF78600023FB607B681B680E4ADA6034
:105F7000FEF7A4FD0300FB600AE0FEF79FFD0200B0
:105F8000FB68D21AFA239B009A4201D9032306E048
:105F90007B681B68DB6820221340EED000231800CA
:105FA000BD4604B080BDC0465FFF010080B584B02F
:105FB00000AF78600023BB600F23FB1800221A702B
:105FC0007B681B68DB68402213402CD17B681B6810
:105FD000DA687B681B6880210A43DA60FEF76EFD91
:105FE0000300BB6014E0FEF769FD0200BB68D21A33
:105FF0000F203B18391809781970FA239B009A4230
:1060000006D97B682122042199543B1801221A7079
:106010007B681B68DB684022134004D10F23FB1808
:106020001B78012BDFD10F23FB181B781800BD460E
:1060300004B080BD90B585B000AF78600F243B19E7
:1060400000221A707B681B68DA687B681B688021F5
:106050008A43DA607B681B689B68202213400CD15E
:106060007B681800FFF77AFF031E06D07B682122A9
:10607000042199543B1901221A700F23FB181B7835
:106080001800BD4605B090BD80B582B000AF786005
:106090007B68002B01D1012332E07B6839229B5CB5
:1060A000DBB2002B07D17B683822002199547B6832
:1060B0001800FEF7E9FB7B683922022199547B68BE
:1060C0001A687B6804331900100000F0F1F87B684F
:1060D0003E22012199547B683A22012199547B6820
:1060E0003B22012199547B683C22012199547B6811
:1060F0003D22012199547B683922012199540023C2
:106100001800BD4602B080BD80B584B000AF786095
:1061100039600F23FB1800221A707B6838229B5CC1
:10612000012B01D10223BCE07B6838220121995464
:106130007B683922022199547B681B689B68BB608D
:10614000BB6877229343BB60BB68584A1340BB606F
:106150007B681B68BA689A603B681B688022920162
:10616000934240D080229201934200D988E080225D
:106170005201934200D188E080225201934200D91B
:106180007EE0702B18D000D97AE0602B4FD000D978
:1061900076E0502B3BD000D972E0402B57D000D98D
:1061A0006EE0302B63D06BD8202B60D068D8002BEA
:1061B0005DD0102B5BD063E07B6818683B68996802
:1061C0003B685A683B68DB6800F04AF97B681B68EB
:1061D0009B68BB60BB6877221343BB607B681B680E
:1061E000BA689A6052E07B6818683B6899683B68B7
:1061F0005A683B68DB6800F033F97B681B689A6873
:106200007B681B688021C9010A439A603EE07B6875
:1062100018683B6859683B68DB681A0000F0A6F80C
:106220007B681B685021180000F000F92EE07B68A5
:1062300018683B6859683B68DB681A0000F0C4F8CE
:106240007B681B686021180000F0F0F81EE07B6896
:1062500018683B6859683B68DB681A0000F086F8EC
:106260007B681B684021180000F0E0F80EE07B68B6
:106270001A683B681B681900100000F0D7F805E0A9
:106280000F23FB1801221A7000E0C0467B683922F8
:10629000012199547B683822002199540F23FB185F
:1062A0001B781800BD4604B080BDC046FF00FFFF4C
:1062B00080B584B000AF786039607B681B68FB6094
:1062C0007A688023DB059A420BD07B68234A93428D
:1062D00007D07B68224A934203D07B68214A9342CD
:1062E00008D1FB6870229343FB603B685B68FA68E7
:1062F0001343FB607A688023DB059A420BD07B68EE
:10630000164A934207D07B68154A934203D07B68B4
:10631000144A934208D1FB68134A1340FB603B6860
:10632000DB68FA681343FB60FB68802293431A0022
:106330003B681B691343FB607B68FA681A603B6823
:106340009A687B68DA623B681A687B689A627B6845
:1063500001225A61C046BD4604B080BD0004004021
:106360000008014000140140FFFCFFFF80B586B02B
:1063700000AFF860B9607A60FB681B6A7B61FB68FC
:106380001B6A012293431A00FB681A62FB689B692F
:106390003B613B69F02293433B617B681B013A6997
:1063A00013433B617B690A2293437B617A69BB6833
:1063B00013437B61FB683A699A61FB687A691A62E8
:1063C000C046BD4606B080BD80B586B000AFF8605F
:1063D000B9607A60FB681B6A102293431A00FB685D
:1063E0001A62FB689B697B61FB681B6A3B617B6986
:1063F0000D4A13407B617B681B037A6913437B6101
:106400003B69A02293433B61BB681B013A6913437C
:106410003B61FB687A699A61FB683A691A62C04617
:10642000BD4606B080BDC046FF0FFFFF80B584B0FB
:1064300000AF786039607B689B68FB60FB68702206
:106440009343FB603A68FB68134307221343FB60E6
:106450007B68FA689A60C046BD4604B080BD000003
:1064600080B586B000AFF860B9607A603B60FB68C9
:106470009B687B617B69094A13407B613B681A0218
:106480007B681A43BB6813437A6913437B61FB68DB
:106490007A699A60C046BD4606B080BDFF00FFFF26
:1064A00080B584B000AF786039607B6838229B5C2F
:1064B000012B01D1022347E07B6838220121995446
:1064C0007B683922022199547B681B685B68FB60FA
:1064D0007B681B689B68BB60FB6870229343FB6012
:1064E0003B681B68FA681343FB607B681B68FA68AB
:1064F0005A607B681A688023DB059A420ED07B685D
:106500001B68134A934209D07B681B68114A934267
:1065100004D07B681B68104A93420CD1BB68802270
:106520009343BB603B685B68BA681343BB607B689E
:106530001B68BA689A607B683922012199547B688C
:1065400038220021995400231800BD4604B080BDB4
:1065500000040040000801400014014080B582B0F2
:1065600000AF78607B68002B01D1012344E07B6899
:10657000DB6F002B07D17B687822002199547B6860
:106580001800FEF7C7F97B682422DA677B681B686E
:106590001A687B681B6801218A431A607B681800AF
:1065A00000F0D0F80300012B01D1012324E07B6827
:1065B0005B6A002B03D07B68180000F061FB7B68EE
:1065C0001B685A687B681B680D490A405A607B68E3
:1065D0001B689A687B681B682A218A439A607B68DB
:1065E0001B681A687B681B6801210A431A607B6874
:1065F000180000F0F9FB03001800BD4602B080BD92
:10660000FFB7FFFF80B58AB002AFF860B9603B60AA
:10661000BB1D1A80FB68DB6F202B00D08CE0BB68B1
:10662000002B03D0BB1D1B88002B01D1012384E06C
:10663000FB689A6880235B019A4209D1FB681B6959
:10664000002B05D1BB680122134001D0012374E067
:10665000FB68842200219950FB682122DA67FEF74B
:106660002DFA03007B61FB68BA1D502112885A5233
:10667000FB68BA1D522112885A52FB689A6880231F
:106680005B019A4208D1FB681B69002B04D10023EF
:10669000FB61BB68BB6103E0BB68FB610023BB61BE
:1066A0002FE07A69F8683B6800931300002280218C
:1066B00000F042FC031E04D0FB682022DA670323AB
:1066C0003BE0FB69002B0BD1BB691B881A00FB6800
:1066D0001B68D205D20D9A62BB690233BB6107E029
:1066E000FB691A78FB681B689A62FB690133FB61DE
:1066F000FB6852229B5A9BB2013B99B2FB68522223
:106700009952FB6852229B5A9BB2002BC9D17A69DD
:10671000F8683B68009313000022402100F00CFC55
:10672000031E04D0FB682022DA67032305E0FB6820
:106730002022DA67002300E002231800BD4608B0DB
:1067400080BD0000B0B58EB000AFF8611A231822EA
:106750009B18DB1900221A70FB699A68FB691B6998
:106760001A43FB695B691A43FB69DB6913437B636B
:10677000FB691B681B68C34A13401900FB691B684F
:106780007A6B0A431A60FB691B685B68BE4A134058
:106790001900FB69DA68FB691B680A435A60FB69E8
:1067A0009B697B63FB691B68B84A934204D0FB6911
:1067B0001B6A7A6B13437B63FB691B689B68B44A53
:1067C00013401900FB691B687A6B0A439A60FB69E6
:1067D0001B68B04A934231D1AF4BDB6C03221340AC
:1067E000032B1DD023D8022B0CD020D8002B02D095
:1067F000012B0ED01BE01B2318229B18DB19012252
:106800001A70B4E01B2318229B18DB1902221A709D
:10681000ADE01B2318229B18DB1904221A70A6E096
:106820001B2318229B18DB1908221A709FE01B23D8
:1068300018229B18DB1910221A7098E0FB691B685C
:10684000964A934231D1944BDB6C0C2213400C2BB3
:106850001DD023D8082B0CD020D8002B02D0042B1D
:106860000ED01BE01B2318229B18DB1900221A7084
:106870007DE01B2318229B18DB1902221A7076E098
:106880001B2318229B18DB1904221A706FE01B23AC
:1068900018229B18DB1908221A7068E01B231822A3
:1068A0009B18DB1910221A7061E0FB691B687C4A97
:1068B000934206D11B2318229B18DB1900221A7061
:1068C00055E0FB691B68774A934206D11B231822C7
:1068D0009B18DB1900221A7049E0FB691B686B4AA0
:1068E00093423ED16C4BDA6CC0231B011340C02293
:1068F0001201934227D0C022120193422AD880224B
:106900001201934211D080221201934222D8002B0F
:1069100004D08022D20093420ED01BE01B23182209
:106920009B18DB1900221A7021E01B2318229B18E8
:10693000DB1902221A701AE01B2318229B18DB199C
:1069400004221A7013E01B2318229B18DB1908225B
:106950001A700CE01B2318229B18DB1910221A70E6
:1069600005E01B2318229B18DB1910221A70FB6903
:106970001B68464A934200D09AE01B2318229B18BA
:10698000DB191B78082B1DD020DC042B15D01DDC57
:10699000002B02D0022B05D018E0FFF7BBF8030054
:1069A000FB621CE03C4B1B681022134002D03E4BA4
:1069B000FB6214E03D4BFB6211E0FEF7FBFF0300BE
:1069C000FB620CE080231B02FB6208E00023FB62F9
:1069D0001A2318229B18DB1901221A70C046FB6A81
:1069E000002B00D133E1FB695A6813005B009B1850
:1069F000FA6A9A4205D3FB695B681B03FA6A9A42FA
:106A000006D91A2318229B18DB1901221A701EE1DD
:106A1000FB6A3B6100237B6139697A690B001B0EBD
:106A2000100005021D430B001C02FB695B685B083C
:106A3000BB600023FB60B868F96800196941FB6915
:106A40005B683B6000237B603A687B68FDF7FAFB7C
:106A500002000B001300BB62BA6AC0239B009A427B
:106A600009D3BA6A80235B039A4204D2FB691B688C
:106A7000BA6ADA60EBE01A2318229B18DB190122AC
:106A80001A70E4E0F369FFEFFFCFFFFF004800401A
:106A9000FFF4FFFF003801400010024000440040B6
:106AA000004C00400050004000093D000024F4006C
:106AB000FB69DA6980231B029A4200D070E01B2335
:106AC00018229B18DB191B78082B22D89A00674BD9
:106AD000D3181B689F46FFF71DF80300FB6221E0F7
:106AE000FFF72EF80300FB621CE0614B1B681022CD
:106AF000134002D05F4BFB6214E05F4BFB6211E07E
:106B0000FEF758FF0300FB620CE080231B02FB62D0
:106B100008E00023FB621A2318229B18DB190122CC
:106B20001A70C046FB6A002B00D190E0FB6A5A0045
:106B3000FB695B685B08D218FB695B681900100091
:106B4000FDF7F4FA0300BB62BB6A0F2B21D9BA6AC6
:106B500080235B029A421CD2BB6A9AB20E20182490
:106B60000319DB190F218A431A80BB6A5B089BB2A9
:106B70000722134099B20319DB190219D21912889E
:106B80000A431A80FB691B680219D2191288DA605D
:106B90005DE01A2318229B18DB1901221A7056E0B7
:106BA0001B2318229B18DB191B78082B22D89A006C
:106BB000324BD3181B689F46FEF7ACFF0300FB6205
:106BC00021E0FEF7BDFF0300FB621CE0284B1B68C1
:106BD0001022134002D0274BFB6214E0264BFB62CD
:106BE00011E0FEF7E7FE0300FB620CE080231B02CE
:106BF000FB6208E00023FB621A2318229B18DB19B2
:106C000001221A70C046FB6A002B20D0FB695B682A
:106C10005A08FB6AD218FB695B6819001000FDF77F
:106C200085FA0300BB62BB6A0F2B0AD9BA6A8023BC
:106C30005B029A4205D2BB6A9AB2FB691B68DA60B2
:106C400005E01A2318229B18DB1901221A70FB6930
:106C500000229A66FB690022DA661A2318229B1822
:106C6000DB191B781800BD460EB0B0BD647A010870
:106C70000010024000093D000024F400887A010859
:106C800080B582B000AF78607B685B6A01221340F8
:106C90000BD07B681B685B684A4A134019007B680D
:106CA0009A6A7B681B680A435A607B685B6A0222A7
:106CB00013400BD07B681B685B68434A1340190084
:106CC0007B68DA6A7B681B680A435A607B685B6A88
:106CD000042213400BD07B681B685B683B4A13405F
:106CE00019007B681A6B7B681B680A435A607B68D3
:106CF0005B6A082213400BD07B681B685B68344AD0
:106D0000134019007B685A6B7B681B680A435A6002
:106D10007B685B6A102213400BD07B681B689B6802
:106D20002C4A134019007B689A6B7B681B680A43E6
:106D30009A607B685B6A202213400BD07B681B68DB
:106D40009B68254A134019007B68DA6B7B681B68D7
:106D50000A439A607B685B6A402213401DD07B68BF
:106D60001B685B681D4A134019007B681A6C7B68BE
:106D70001B680A435A607B681A6C80235B039A4243
:106D80000BD17B681B685B68154A134019007B6850
:106D90005A6C7B681B680A435A607B685B6A802276
:106DA00013400BD07B681B685B680E4A13401900C8
:106DB0007B689A6C7B681B680A435A60C046BD4674
:106DC00002B080BDFFFFFDFFFFFFFEFFFFFFFBFFE7
:106DD000FF7FFFFFFFEFFFFFFFDFFFFFFFFFEFFF83
:106DE000FFFF9FFFFFFFF7FF80B592B002AF786013
:106DF0007B68842200219950FDF760FE0300FB634D
:106E00007B681B681B6808221340082B2CD1FB6B86
:106E1000802291037868464A0092002200F08CF8A4
:106E2000031E21D0EFF310837B627B6ABB630123D7
:106E3000BB62BB6A83F31088C0467B681B681A6814
:106E40007B681B6880218A431A60BB6BFB62FB6A0C
:106E500083F31088C0467B682022DA677B6878223B
:106E60000021995403235FE07B681B681B680422A0
:106E70001340042B46D1FB6B8022D10378682C4A47
:106E80000092002200F058F8031E3BD0EFF310836D
:106E9000FB60FB687B6301233B613B6983F31088E4
:106EA000C0467B681B681A687B681B6821490A40DA
:106EB0001A607B6B7B617B6983F31088C046EFF3BC
:106EC0001083BB61BB693B630123FB61FB6983F3F7
:106ED0001088C0467B681B689A687B681B68012124
:106EE0008A439A603B6B3B623B6A83F31088C046DF
:106EF0007B688022202199507B6878220021995458
:106F0000032311E07B682022DA677B68802220213E
:106F100099507B6800221A667B6800225A667B685B
:106F200078220021995400231800BD4610B080BD7E
:106F3000FFFFFF01DFFEFFFF80B584B000AFF86008
:106F4000B9603B60FB1D1A704BE0BB69013348D050
:106F5000FDF7B4FD02003B68D31ABA699A4202D326
:106F6000BB69002B01D103234BE0FB681B681B6846
:106F70000422134035D0FB681B68DB6908221340EC
:106F8000082B11D1FB681B6808221A62FB681800E5
:106F900000F03CF8FB68842208219950FB687822B5
:106FA0000021995401232CE0FB681B68DA698023D7
:106FB0001B011A4080231B019A4212D1FB681B68F7
:106FC000802212011A62FB68180000F01FF8FB68AB
:106FD000842220219950FB687822002199540323B0
:106FE0000FE0FB681B68DB69BA681340BA68D31A04
:106FF0005A425341DBB21A00FB1D1B789A42A4D0BF
:1070000000231800BD4604B080BD000080B58EB0DE
:1070100000AF7860EFF310837B617B697B630123B2
:10702000BB61BB6983F31088C0467B681B681A6824
:107030007B681B6826490A401A607B6BFB61FB6911
:1070400083F31088C046EFF310833B623B6A3B63D7
:1070500001237B627B6A83F31088C0467B681B68D0
:107060009A687B681B6801218A439A603B6BBB620C
:10707000BB6A83F31088C0467B681B6E012B18D156
:10708000EFF31083BB60BB68FB620123FB60FB680E
:1070900083F31088C0467B681B681A687B681B688E
:1070A00010218A431A60FB6A3B613B6983F31088B5
:1070B000C0467B688022202199507B6800221A6696
:1070C0007B6800229A66C046BD460EB080BDC046B1
:1070D000DFFEFFFF0EB410B500240C499DB01FABBE
:1070E000029006900791049109480A4904CB059142
:1070F000006802A901931B9400F09EF9029B1C708A
:107100001DB010BC08BC03B01847C046FFFFFF7F8E
:107110000C0000200802FFFF03008218934200D1F8
:10712000704719700133F9E7014B18687047C04682
:107130000C00002070B500260C4C0D4D641BA410F3
:10714000A64209D1002600F061FC0A4C0A4D641BDE
:10715000A410A64205D170BDB300EB589847013684
:10716000EEE7B300EB5898470136F2E7E87A0108FA
:10717000E87A0108EC7A0108E87A0108704770475C
:1071800070B505000C1E10D0043C2368002B00DAFB
:10719000E418280000F0E0F81D4A1368002B05D120
:1071A00063601460280000F0DFF870BDA34208D9C6
:1071B000206821188B42F3D119685B680918216097
:1071C000EEE71A005B68002B01D0A342F9D91168E1
:1071D0005018A0420BD12068091850181160834242
:1071E000E0D118685B68411811605360DAE7A0428B
:1071F00002D90C232B60D5E7206821188B4203D1DC
:1072000019685B680918216063605460CAE7C0466A
:10721000B402002070B50F4E0D0031680400002943
:1072200002D100F095FB30602900200000F090FBB7
:10723000431C03D101256D42280070BD0323C51CEA
:107240009D43A842F8D0291A200000F081FB0130AC
:10725000F2D1EFE7B0020020F7B50322CB1C934335
:10726000083305001F000C2B34D20C27B94233D849
:10727000280000F071F8374E33681C00002C2FD125
:1072800039002800FFF7C6FF0400431C5FD13468B3
:107290000094009B002B4AD1002C52D02368280078
:1072A000E3180099019300F053FB019B834248D1FE
:1072B00023682800FF1A3900FFF7ACFF013040D0E7
:1072C0002368DB19236033685A68002A33D1009B96
:1072D000336019E0002BC9DA0C232B600020FEBDBF
:1072E0002168C91B20D40B290AD9E2192760A342BF
:1072F00004D1326063681160536005E05A60F9E7B9
:107300006268A3420ED13260280000F02DF8200000
:1073100007220B30231D9043C21A9842DFD01B1A5C
:10732000A350DCE75A60EFE723006468A6E7009CFF
:1073300063680093ADE71A005B68A342FBD10023AA
:10734000DAE70C2328002B6000F00EF8C6E7076090
:10735000DAE7C046B402002010B50248FFF70EFF7E
:1073600010BDC046AC02002010B50248FFF707FF71
:1073700010BDC046AC020020F0B58E6885B01F007D
:107380000C000B6802900392BE4230D80C21625E62
:107390009021C9000A4228D0032021695B1A019379
:1073A000636943430198DD0FED187B1C1B186D10BA
:1073B000AB4200D91D00520528D529000298FFF7DD
:1073C0004BFF061E2CD0019A216900F0DEFAA2893B
:1073D000184B1A4080231343A381019B2661F618A2
:1073E00026603E006561ED1AA560BE4200D93E00F0
:1073F00032000399206800F099FA0020A3689B1BD3
:10740000A36023689B19236005B0F0BD2A00029891
:1074100000F0C4FA061EE0D121690298FFF7B0FE21
:107420000C230120029A40421360A2893433134393
:10743000A381E9E77FFBFFFFF0B5A1B003901D003A
:107440008B890F0016001B0611D50B69002B0ED17E
:107450004021FFF701FF38603861002805D10C2377
:10746000039A136001204042CFE040237B61002358
:1074700008AC6361203363761033A376079535003B
:107480002B78002B01D0252B48D1AB1B0593B5429F
:107490000BD0320039000398FFF76EFF013000D1A6
:1074A000AEE06369059A9B1863612B78002B00D1CD
:1074B000A6E0012200235242626004A9543252180D
:1074C0006E1C2360E360A3601370A365544B052218
:1074D00018003178059300F04DFA751C00281FD173
:1074E0002268D30604D5532304A95B182021197000
:1074F000130704D5532304A95B182B211970337883
:107500002A2B16D0350000210A20E3682A786E1C49
:10751000303A092A50D9002911D117E00135AFE7D7
:10752000059B2268C01A0123834013432E00236069
:10753000CCE7079B191D1B680791002B01DB0B9300
:1075400004E05B42E3600223134323602B782E2B7D
:107550000CD16B782A2B34D1079B02351A1D1B687E
:107560000792002B01DA01235B4209932D4E03227F
:107570003000297800F0FEF9002806D04023801B57
:107580008340226801351343236029780622264868
:107590006E1C217600F0EEF9002838D0234B002B2A
:1075A00022D10722079B073393430833079363696C
:1075B000049A9B18636162E74343350001219B18DD
:1075C000A4E700230A201900013563602A786E1CA5
:1075D000303A092A03D9002BC8D00991C6E74143A4
:1075E000350001238918F1E707AA009221003A002B
:1075F0000F4B039800E000BF0490049B0133D6D1E9
:10760000BB890D985B0600D52CE721B0F0BD07AA19
:10761000009221003A00064B039800F07BF8EBE75C
:10762000AC7A0108B27A0108B67A010800000000BD
:1076300079730108F7B5160001938A680B690C008D
:107640000090934200DA1300220033604332127834
:10765000002A01D00133336023689B0602D53368CA
:10766000023333602268062315001D401A4227D0DA
:10767000230043331B785A1E93412268920630D46C
:10768000220001990098089D4332A847013025D077
:107690000622236800251340042B05D13368E568D2
:1076A000ED1AEB43DB171D40A3682269934201DD0D
:1076B0009B1AED180026B54220D1002010E00135BC
:1076C000E36832689B1AAB42D2DD220001230199A4
:1076D0000098089F1932B8470130F0D1012040428C
:1076E000FEBD3020E1184331087021005A1C45319D
:1076F0000978A218433202331170C1E72200012336
:1077000001990098089F1A32B8470130E6D0013637
:10771000D1E70000F0B58BB006920A004332079320
:10772000059003920A7E0C00109B782A09D8622AE1
:107730000BD8002A00D1BAE07A490491582A00D126
:107740008EE0250042352A7022E0100063381528AB
:10775000F7D8FCF7E1FC16001F00F6FFF6FFF6FF76
:10776000F6FF1F00F6FFF6FFF6FFF6FF9F0036005C
:107770007E00F6FFF6FFB000F6FF3600F6FFF6FFDC
:10778000820025001A684235111D196013682B709C
:1077900001239EE018680968021D0D060BD50668D6
:1077A0001A60002E03DA2D23039A764213705D4B84
:1077B0000A27049318E006681A604906F1D536B224
:1077C000EFE70868196840C9050602D4400600D5ED
:1077D000B6B21960534B0A2704936F2A00D1023FB7
:1077E0002300002243331A706368A360002B06DB7A
:1077F00004212268039D8A43226033430CD0039DF9
:1078000030003900FCF718FD049B013D5B5C2B70D8
:10781000330006009F42F3D9082F09D12368DB0704
:1078200006D5626823699A4202DC3023013D2B7041
:10783000039B5B1B2361079B210000930598069B1C
:1078400009AAFFF7F7FE013048D1012040420BB0F2
:10785000F0BD202209680A4322607822324904914F
:10786000210045310A701968226840C9100602D407
:10787000500600D5B6B21960D30702D520231343B2
:107880002360002E01D01027AAE72022236893430B
:107890002360F8E71A680D68101D496918601368BD
:1078A0002E0601D5196002E06D06FBD51980002374
:1078B000039D2361BFE71A68111D19601568002137
:1078C0002800626800F056F8002801D0401B606074
:1078D000636823610023039A1370ACE72A002369CD
:1078E00006990598079DA8470130AED023689B07ED
:1078F00015D4099BE0689842A9DA1800A7E722008E
:10790000012306990598079E1932B04701309CD093
:107910000135E368099A9B1AAB42F0DCE9E70025E0
:10792000F7E7C046BD7A0108CE7A010810B5884253
:1079300002D98B18984208D300239A4207D0CC5C16
:10794000C4540133F9E78B5C8354013AFBD210BD78
:10795000002370B5064D040008002B60FCF7FEFE06
:10796000431C03D12B68002B00D0236070BDC046A0
:10797000A8020020C9B28218904201D100207047AD
:1079800003788B42FBD00130F6E7002310B59A4212
:1079900000D110BDCC5CC4540133F8E7F7B5060044
:1079A0000C001500002905D11100FFF755FC04005B
:1079B0002000FEBD002A03D1FFF7E2FB2C00F7E711
:1079C00000F01CF80700854202D84308AB42EFD311
:1079D00029003000FFF740FC0190002801D1019CF4
:1079E000E6E72A00BD4200D93A0021000198FFF7DE
:1079F000CCFF21003000FFF7C3FBF0E70B1F1B6833
:107A0000181F002B01DA0B58C0187047F8B5C04694
:107A1000F8BC08BC9E467047F8B5C046F8BC08BC28
:047A20009E467047C7
:107A240048656C6C6F20576F726C642066726F6D62
:107A34002061707032202D2025640A0000000000AF
:107A4400000000000102030406070809000000000A
:107A540001020304030406080C101820300000007F
:107A6400D66A0108E06A0108EA6A0108126B010893
:107A7400006B0108126B0108126B0108126B0108FC
:107A84000A6B0108B86B0108C26B0108CC6B0108D2
:107A9400F46B0108E26B0108F46B0108F46B010854
:107AA400F46B0108EC6B0108232D302B2000686C6B
:107AB4004C0065666745464700303132333435360D
:107AC4003738394142434445460030313233343546
:0C7AD40036373839616263646566000073
:087AE00000C8FF7F0100000057
:047AE800E940010868
:047AEC00C14001088C
:107AF0000000200004000000010000001000002031
:107B00000000000070010020D80100204002002089
:107B10000000000000000000000000000000000065
:107B20000000000000000000000000000000000055
:107B30000000000000000000000000000000000045
:0C7B400000000000000000000000000039
:040000050801499D08
:00000001FF
